:020000040800F2
:1000000098050020A9010008BF1B0008131700086D
:10001000BD1B0008DD0200080D27000800000000DD
:10002000000000000000000000000000131C000899
:10003000DF02000800000000C11B0008151C0008BA
:10004000C3010008C3010008C3010008C301000880
:10005000C3010008C3010008C3010008C301000870
:10006000C3010008C3010008C3010008C301000860
:10007000C3010008C3010008C3010008C301000850
:10008000C3010008C3010008C3010008000000000C
:10009000000000000000000000000000C301000894
:1000A000C301000821220008C3010008C3010008A1
:1000B0003922000845220008C3010008C3010008D6
:1000C000C3010008C3010008C3010008C301000800
:1000D000C301000801270008C30100080000000058
:1000E000C3010008C3010008C301000800000000AC
:1000F000000000000000000000000000C301000834
:1001000000000000C3010008C3010008C30100088B
:1001100000000000000000000000000000000000DF
:10012000C3010008C3010008C3010008C30100089F
:10013000C3010008000000000000000000000000F3
:10014000000000000000000000000000C3010008E3
:10015000C3010008C3010008C3010008C30100086F
:10016000C3010008C30100080000000000000000F7
:10017000000000000000000000000000000000007F
:1001800000000000C30100080000000000000000A3
:10019000C3010008DFF80CD000F08EF800480047DB
:1001A0004D2700089805002006488047064800476C
:1001B000FEE7FEE7FEE7FEE7FEE7FEE7FEE7FEE717
:1001C000FEE7FEE705220008950100082DE9F05F33
:1001D0000546002092469B468846064681464024B6
:1001E0001BE0284641464746224600F054F8534655
:1001F0005A46C01A914110D311461846224600F0C3
:100200003BF82D1A67EB01084F46224601200021DA
:1002100000F032F817EB00094E41201EA4F1010452
:10022000DFDC484631462A464346BDE8F09F0000E1
:100230000649074A0868504343F2390210440860EF
:1002400040087047014908607047000070000020B6
:100250006D4EC641D2B201E000F8012B491EFBD21F
:1002600070470022F6E710B513460A4604461946C1
:10027000FFF7F0FF204610BD202A04DB203A00FAE9
:1002800002F1002070479140C2F1200320FA03F3ED
:10029000194390407047202A04DB203A21FA02F0EB
:1002A0000021704721FA02F3D040C2F120029140B0
:1002B0000843194670470000064C074D06E0E06809
:1002C00040F0010394E8070098471034AC42F6D39D
:1002D000FFF764FF88290008A8290008FEE7704797
:1002E000704790F83510022903D080214165012024
:1002F0007047052180F835100068016821F0010180
:10030000016000207047000070B5044600F0DEF880
:100310000546601C02D004480078044400F0D6F87A
:10032000401BA042FAD370BD600000202DE9F84FB9
:1003300000224FF0010803254FF00F0E0B6808FA5A
:1003400002F42340A34271D14E68012E05D0022E43
:1003500003D0112E01D0122E15D18668570005FA50
:1003600007FC26EA0C06D1F80CC00CFA07FC4CEA94
:10037000060CC0F808C04668A6430C79C4F3001404
:10038000944034434460C668570005FA07FC8C6803
:1003900026EA0C06BC403443C4604C68022C01D0F1
:1003A000122C13D1D40800EB8404A346D4F8209077
:1003B00054074FEAD46A0EFA0AF629EA06090E69CA
:1003C00006FA0AF646EA0906CBF8206004680E79B8
:1003D00024EA0C0406F00306BE40264306604C687F
:1003E000E40056D52E4C266846F4804626602468E4
:1003F00022F0030604F4804400942A4C3444A446BA
:10040000D4F808489607370F0EFA07F6B443264E7D
:10041000B04201D1002615E0244EB04201D10126A0
:1004200010E0234EB04202D102260BE031E0214E13
:10043000B04201D1032605E01F4EB04201D104268F
:1004400000E00726BE402643CCF808681B4E3468FF
:100450004F689C43FF0300D51C433460174E361D84
:1004600034684F689C43BF0300D51C433460134E6F
:10047000083634684F689C43FF0200D51C43346043
:100480000E4E0C3634684F689C43BF0200D51C43A7
:100490003460521C102AFFF451AFBDE8F88F000001
:1004A0004438024000300140000002400004024095
:1004B00000080240000C024000100240003C0140D5
:1004C0000069084000D001207047000001488068A2
:1004D00070470000600000200248816802781144E3
:1004E00081607047600000200B4810B5016841F43E
:1004F00000710160016841F480610160016841F4AC
:1005000080710160032000F06FF8002000F006F811
:1005100000F024F8002010BD003C024070B50D4DE5
:1005200004464FF47A712878B1FBF0F00A49096863
:10053000B1FBF0F000F003FD48B9102C07D2002207
:100540002146501E00F030F800206C6070BD012084
:1005500070BD0000600000206C0000200A4808B553
:10056000016841F480410160006800F4804000901F
:100570000548001F016841F080510160006800F0EB
:100580008050009008BD000044380240002809DB7C
:1005900000F01F02012191404009800000F1E0209D
:1005A000C0F8001170470000F0B40E4B1B680C46F9
:1005B000C3F30223C3F10705042D00D90425191D37
:1005C000072901D2002300E0DB1E012606FA05F10F
:1005D000491E214099409E40761E16403143F0BC92
:1005E00002F095B80CED00E0064900F0070208683B
:1005F0004FF6FF03184040EA0220034A1043086008
:10060000704700000CED00E00000FA052DE9F8430A
:10061000044600684FF00109C1074FF0000601D100
:10062000400727D5DFF81C81C8F86860FFF74EFF48
:100630000746454D05E000BFFFF748FFC01B0228F5
:1006400057D828680001F7D460688101207A41EA10
:1006500000703D4984310860C8F86890FFF736FFA4
:10066000074604E0FFF732FFC01B022841D8286884
:100670000001F7D52078800752D533484030016813
:1006800041F0805101600068304D00F080500090D2
:10069000286840F480702860FFF718FF074604E0E0
:1006A000FFF714FFC01B022823D82868C005F7D520
:1006B000254D7035286810F4407020D0A18901F4D0
:1006C000407181421BD0286820F440712048C0F856
:1006D0000090066029602868C00710D0FFF7F6FE7A
:1006E000064641F2883707E0FFF7F0FE801BB8426C
:1006F00002D90320BDE8F88328688007F4D5E168B3
:100700001148C1F301220830032A12D0016821F4F4
:10071000F81101602868A189C1F30B010843286022
:100720002078000703D50B49207CC1F8E0010020A8
:10073000E0E70268084B22F4F81219400A4302600D
:10074000E8E7000000004742003802400070004027
:10075000400E474200104742FFFCFF0F2DE9F047D3
:100760000E46050065D0DFF81481D8F80000F7B216
:1007700000F00F00B04207D288F80070D8F80000EF
:1007800000F00F00B04254D128683D4C810712D5CB
:10079000400703D5206840F4E05020602878000727
:1007A00003D5206840F4604020602068A96820F0EC
:1007B000F000084320602878C0072DD030496868D1
:1007C0000839012812D0022813D0032811D0096853
:1007D000890700292DDA216821F0030101432160F6
:1007E000FFF774FE814641F2883A0EE009688903FA
:1007F000EFE709688901ECE7FFF768FEA0EB090164
:10080000514502D90320BDE8F0872068696800F0EF
:100810000C00B0EB810FEFD1D8F80010404601F08A
:100820000F01B14207D90770006800F00F00B04215
:1008300001D00120E7E72878400705D52068E9685E
:1008400020F4E050084320602878000706D520688F
:10085000296920F4604040EAC100206000F038F8C7
:100860002168084AC1F30311515CC8400649086079
:1008700006480068FFF752FE0020C4E7003C024033
:1008800008380240702900086C0000206400002035
:100890000448054900680968044AC1F38221515C93
:1008A000C84070476C0000200838024080290008CA
:1008B0000448054900680968044AC1F34231515CA3
:1008C000C84070476C0000200838024080290008AA
:1008D000154810B5006810F00C02144813D01449E4
:1008E000042A0FD0082A0ED10F4C241F2268236837
:1008F00002F03F025B0207D52068C0F38810A0FB1E
:10090000010106E0084610BD2168C1F38811A1FB72
:1009100000010023FFF75AFC2168C1F30141491C83
:100920004900B0FBF1F010BD083802400024F4008B
:1009300040787D012DE9F84F04006ED02078DFF873
:100940003C93C007A9F104054AD009F104000168ED
:10095000C1F38101012908D00068C0F38100022899
:100960000AD1D9F80000400206D52868800337D59F
:1009700060680028E1D033E06068B0F5803F10D0B7
:10098000B0F5A02F286810D020F4803028602868A7
:1009900020F4802028606068A8B1FFF797FD064624
:1009A0000DE0286840F48030F4E740F480202860AF
:1009B000F7E700BFFFF78AFD801B642873D828681B
:1009C0008003F7D50CE0FFF781FD064605E000BF88
:1009D000FFF77CFD801B6428F0D828688003F7D4DB
:1009E0002078DFF89C8280074FF0000A3ED5A348AC
:1009F000001D016811F00C0F08D00068C0F38100E1
:100A000002280BD1D9F80000400207D428688007DB
:100A100016D5E068012800D112E02BE1E068B8B1FA
:100A20000120C8F80000FFF751FD064605E000BFB1
:100A3000FFF74CFD801B0228C0D828688007F7D537
:100A40002868216920F0F80040EAC10028600DE024
:100A5000C8F800A0FFF73AFD064604E0FFF736FDB0
:100A6000801B02281FD828688007F7D42078000749
:100A700022D5824E83486169703671B101210160CF
:100A8000FFF724FD074604E0FFF720FDC01B022806
:100A900009D830688007F7D50EE0C0F800A0FFF74E
:100AA00015FD074605E082E0FFF710FDC01B022898
:100AB0007DD830688007F7D42078400768D5DFF804
:100AC000BCB100270BF13C0BDBF80000C0000BD4DD
:100AD000DBF8001041F08051CBF80010DBF800008B
:100AE000012700F080500090674E3068C00510D498
:100AF000306840F480703060FFF7E8FC009005E05B
:100B0000FFF7E4FC0099401A022850D83068C0056D
:100B1000F6D55A4EA0686C3601280FD005283068EB
:100B200010D020F001003060306820F00400306008
:100B3000A068B8B1FFF7CAFC00900FE0306840F041
:100B40000100F4E740F004003060F7E7FFF7BEFC77
:100B50000099411A41F28830814266D83068800796
:100B6000F4D50EE0FFF7B2FC009007E0FFF7AEFC13
:100B70000099411A41F28830814256D83068800786
:100B8000F4D42FB1DBF8001021F08051CBF8001025
:100B9000A069C8B33949091D0968C1F38101022957
:100BA0004AD00228504607D0C8F8600000E03CE078
:100BB000FFF78CFC04463BE04746C8F86000FFF7AF
:100BC00085FC064605E000BFFFF780FC801B02287D
:100BD0002BD828688001F7D4D4E907010843A16A1B
:100BE0002A4A490802EB0141626A41EA821108433C
:100BF00094F82C1040EA0161C9F800100120386611
:100C0000FFF764FC044606E036E000BFFFF75EFC39
:100C1000001B022809D828688001F7D52CE000BF06
:100C2000FFF754FC001B022802D90320BDE8F88F0F
:100C300028688001F4D41FE00128F7D0D9F800001B
:100C4000E26900F48001914214D1226A00F03F0170
:100C500091420FD147F6C071626A0140914209D1B9
:100C6000A26A00F44031914204D1E16A00F0706060
:100C7000884201D00120D9E70020D7E7043802409C
:100C800000004742800E4742007000400000FFFF16
:100C900070B5040002D0607F10B106E0012070BD85
:100CA00000202077204600F049F802206077216874
:100CB000CA204862216853204862204600F08CFF19
:100CC000FF25042618BB206881681B4A11408160FB
:100CD0002168886862681043D4E904231A431043EA
:100CE00088602168E068086120680169228941EA1A
:100CF000024101612068C16821F08001C160206863
:100D00008068800607D4204600F0FEF818B12068FD
:100D100045626677C2E72068016C21F48021016496
:100D20002068016CA26911430164206845620120BA
:100D30006077002070BD0000BFFF8FFF006803498F
:100D4000884202D102490120086070470028004013
:100D50003C0E47422DE9F0470446007F0B46012830
:100D60001FD04FF0010984F81C9002206077DAB19F
:100D70009878D97840EA014558781978000240EA15
:100D8000413005432168CA204862216853204862E7
:100D9000204600F021FF0026FF274FF0040860BB2B
:100DA0001AE00220BDE8F0875878C10603D500F0AC
:100DB000EF000A305870D87800F003FF020458782A
:100DC00000F0FFFE42EA0022987800F0FAFE0243AB
:100DD000187842EA4035D5E70F480540206845605D
:100DE0002068C16821F08001C160206880688006A9
:100DF0000AD4204600F088F830B12068476284F8B1
:100E00001D8026770120CDE72068476284F81D9079
:100E100026770020C6E700003FFFFF002DE9F047DE
:100E20000446007F0D46012827D04FF0010A84F8C0
:100E30001CA0022060772068002680684FEA40608E
:100E4000F2B1002800DBEE70A878297840EA01476B
:100E50006878E978000240EA014007432168CA2027
:100E60004862216853204862204600F0B5FE4FF0EA
:100E7000FF084FF00409A0BB16E00220BDE8F08790
:100E8000002800DBEE70287800F09BFE02046878F2
:100E900000F097FE42EA0022A87800F092FE02439A
:100EA000E87842EA0047D9E716480740206807601B
:100EB0002068816821F480218160D5E9030108431D
:100EC00021688A68104388602068C16821F0800129
:100ED000C1602068806880060BD4204600F014F8BA
:100EE00038B12168C1F8248084F81D90267701204C
:100EF000C4E72168C1F8248084F81DA0267700206B
:100F0000BCE700007F7F7F0070B504460068C168C1
:100F100021F0A001C160FFF7D9FA05464FF47A76B7
:100F200007E000BFFFF7D2FA401BB04201D903200F
:100F300070BD2068C0688006F4D5002070BD10B573
:100F4000401EB0F1807F01D3012010BD4FF0E0249E
:100F500060610F21601701F0DAFB0020A06107201B
:100F60002061002010BD70477047000070B590F8F8
:100F70003C20012A2CD0012480F83C40022280F839
:100F80003D2003685A689D6822F070060A68324363
:100F90005A60104B02689A420ED0B2F1804F0BD0CB
:100FA0000D4B9A4208D00D4B9A4205D00C4B9A42F9
:100FB00002D00C4B9A4204D1496825F080031943B2
:100FC000916080F83D40002180F83C10084670BDDB
:100FD000022070BD000001400004004000080040F5
:100FE000000C00400040014010B5040003D094F80C
:100FF0003D0010B107E0012010BD002084F83C0046
:10100000204600F00DF8022084F83D00211D2068E4
:1010100001F01EF9012084F83D00002010BD000001
:1010200008B501681E48B1F1804F11D01D4A9142A8
:101030001DD1016841F0020101600068002200F04A
:101040000200009011461D20FFF7AEFA1D2021E09E
:10105000016841F0010101600068002200F0010018
:10106000009011461C20FFF79FFA1C2012E00E484A
:10107000814213D10A48001D016841F4003101602A
:101080000068002200F40030009011461920FFF79C
:101090008BFA1920BDE80840FFF778BA08BD0000B8
:1010A0004038024000040040004401400168CA6822
:1010B00042F00102CA600068816801F00701062958
:1010C00003D0016841F0010101600020704770B554
:1010D000044690F83C00012817D0012584F83C50C4
:1010E000022084F83D002068826822F0770222F412
:1010F0007F4282600868502830D00DDC20284DD017
:1011000005DC98B310283BD148E0022070BD3028A0
:1011100044D0402834D139E0602828D0702806D047
:10112000B0F5805F2CD0B0F5005F29D10AE0CB6824
:10113000D1E90121206801F0E4F82068816841F0DC
:10114000770109E0CB68D1E90121206801F0D9F8E5
:101150002068816841F48041816011E0CA68496873
:10116000206801F083F95021206807E016E0CA6882
:101170004968206801F08BF96021206801F0CBF804
:1011800084F83D50002084F83C0070BDCA6849686E
:10119000206801F06BF940212068EFE722680146E2
:1011A0001046EBE7704770B50446006801694FF0E0
:1011B0000005C943890715D4C168C943890711D4FB
:1011C000E91E0161012020772068806980072046A0
:1011D00002D0FFF7E7FF04E000F0D6F8204600F069
:1011E00058F9257720680169C943490717D4C168B0
:1011F000C943490713D46FF004010161022020772D
:101200002068806910F4407F204602D0FFF7CAFFB3
:1012100004E000F0B9F8204600F03BF9257720689B
:101220000169C943090716D4C168C943090712D423
:101230006FF008010161042020772068C0698007F1
:10124000204602D0FFF7AEFF04E000F09DF82046F4
:1012500000F01FF9257720680169C943C90617D432
:10126000C168C943C90613D46FF010010161082099
:1012700020772068C06910F4407F204602D0FFF735
:1012800091FF04E000F080F8204600F002F9257795
:1012900020680169C943C90708D1C168C943C907A2
:1012A00004D1891E0161204600F010F9206801690F
:1012B000C943090609D4C168C943090605D46FF0BA
:1012C000800101612046FFF74EFE20680169C94395
:1012D000490609D4C168C943490605D46FF04001E5
:1012E0000161204600F0FAF820680169C9438906C7
:1012F0000BD4C168C943890607D46FF0200101618E
:101300002046BDE87040FFF72FBE70BD30B587B0F6
:10131000044614216846FEF7A4FF246800221749FA
:1013200002231748B4F1804F16D0164DAC4211D1AC
:101330000C6844F001040C60096801F0010105919A
:10134000C0210091CDE901326946CDE9032300BFF8
:10135000FEF7ECFF07B030BD0C6844F001040C60F0
:10136000096801F0010105910E210091CDE90132DA
:101370000121CDE903216946EAE700003038024047
:101380000000024000040040704770B5044690F829
:101390003C000D4601280DD0012684F83C60022057
:1013A00084F83D0042B1042A18D0082A2AD00C2A19
:1013B0004DD139E0022070BD206800F0B5FF2068F3
:1013C000816941F0080181612068816921F004018F
:1013D0008161206881692A69114311E0206800F069
:1013E000CBFF2068816941F40061816120688169D7
:1013F00021F480618161206881692A6941EA0221C2
:10140000816124E0206800F0E3FF2068C16941F0B9
:101410000801C1612068C16921F00401C16120682F
:10142000C1692A69114311E0206800F0FDFF2068BE
:10143000C16941F40061C1612068C16921F4806122
:10144000C1612068C1692A6941EA0221C16184F849
:101450003D60002084F83C0070BD10B5040003D04E
:1014600094F83D0010B107E0012010BD002084F881
:101470003C00204600F00CF8022084F83D00211DBD
:10148000206800F0E5FE012084F83D00002010BD3A
:101490007047704710B504460068012200F024FF31
:1014A00009492068884203D1416C41F400414164FC
:1014B0002068816801F00701062903D0016841F026
:1014C00001010160002010BD000001400248016DD3
:1014D000491C0165704700000000002070477047FC
:1014E00070B5026804461068D168536910F00F0F98
:1014F00052D003F0010501F490762E435FD0C2076D
:1015000005D0CA0503D5E26B42F00102E26342074F
:1015100005D5DA0703D0E26B42F00202E2638207EC
:1015200005D5DA0703D0E26B42F00402E26302075A
:1015300007D501F020022A4303D0E26B42F00802F3
:10154000E263E26B002A33D0800604D5880602D518
:10155000204600F0C4FF20684069E16BC0F38010B2
:10156000090700D428B3204600F0ABFF206841698A
:1015700049061AD5416921F040014161606BA0B173
:101580001B490165606BFEF7ACFE002810D0606B54
:10159000016DBDE870400847830610D58B060ED557
:1015A0002046BDE8704000F09ABF2046FFF797FF45
:1015B00070BD2046FFF793FF0020E06370BD030677
:1015C00006D50B0604D52046BDE8704001F066B88C
:1015D0004006F3D54806F1D5D168204621F04001F8
:1015E000D160202184F8391000F092F870BD00001D
:1015F000B324000870B5040004D094F83900002525
:1016000010B106E0012070BD84F83850204600F08B
:1016100023F8242084F839002068C16821F400519F
:10162000C160204600F0A6FF2068016921F49041C6
:1016300001612068416921F02A0141612068C16887
:1016400041F40051C160E563202084F8390084F83A
:101650003A00002070BD000010B586B00446142189
:101660006846FEF7FEFD17492068884228D11648D3
:101670000021026842F010020260006800F01000D1
:10168000059011481438026842F0020202600068B6
:1016900000F002000590C02000900220CDE9010179
:1016A000032003900720049069460848FEF73EFE99
:1016B000002211462520FEF777FF2520FEF766FF62
:1016C00006B010BD00100140443802400004024042
:1016D000704790F83930202B18D1A9B1A2B190F8F9
:1016E0003830012B12D001628284C2840021C16390
:1016F000212280F8392080F838100068C16841F054
:101700008001C160002070470120704702207047AF
:101710007047FEE72DE9F05F00244FF400716D483B
:10172000FEF7CEFEDFF8B0B1DFF8B0916C4FDFF816
:10173000B4816D4E00254FF0010A18BB1420FEF74E
:10174000E3FD00BF4FF400716248641CFEF7B8FE71
:101750000028F7D05C4510DD7561B561C9F800500F
:101760003868002485633868C56338680564D8F82C
:1017700000104D63D8F8000085631420C6F800A05F
:10178000FEF7C2FD10215348FEF79AFE08BB142055
:10179000FEF7BAFD10214F48641CFEF791FE0028A9
:1017A000F8D05C4510DD7561B561C9F80050386846
:1017B000002485633868C56338680564D8F800106C
:1017C0004D63D8F8000085631420C6F804A0FEF726
:1017D0009BFD4FF400714548FEF772FE18BB1420C4
:1017E000FEF792FD4FF400714048641CFEF768FE5E
:1017F0000028F7D03E48844210DD7561B561C9F814
:1018000000503868002485633868C563386805640B
:10181000D8F800104D63D8F8000085631420C6F88E
:1018200008A0FEF771FD4FF400412A48FEF748FE7C
:1018300010BB1420FEF768FD4FF400412548641CDE
:10184000FEF73EFE0028F7D05C4510DD7561B561FE
:10185000C9F800503868002485633868C563386863
:101860000564D8F800104D63D8F800008563142093
:10187000C6F80CA0FEF748FD4FF400511548FEF7DE
:101880001FFE002823D11420FEF73EFD4FF4005127
:101890001048641CFEF714FE0028F7D05C450FDDED
:1018A0007561B561C9F80050386885633868C563EB
:1018B00038680564D8F800104D63D8F800008563D7
:1018C000C6F810A0BDE8F05F1420FEF71DBDBDE80E
:1018D000F09F00000004024060E316005800002062
:1018E00094000020D40000200000002000000240EE
:1018F00080841E0030B587B014216846FEF7B1FC25
:1019000016480024016841F080010160016801F07F
:1019100080010591016841F001010160016801F059
:1019200001010591016841F0020101600068012593
:1019300000F0020005904AF210208DE8310069465F
:101940000748FEF7F3FC4FF4F8508DE83100694684
:101950000448FEF7EBFC07B030BD00003038024011
:10196000000402400000024010B586B01421684611
:10197000FEF777FC1C4800241A490594C0E90014BE
:101980007F218160FF21C0E9031444618461FFF776
:101990007FF908B1FEF7A4FC8DF800408DF80140F6
:1019A0008DF802400394012269460F480494FFF722
:1019B00035FA08B1FEF794FC01208DF814008DF87B
:1019C00015008DF8160022208DF81700012205A9B8
:1019D0000548FFF7BFF9002801D0FEF781FC06B0EB
:1019E00010BD000000280040740000200B4810B516
:1019F000094901605321416000216322C0E90212BC
:101A0000016180218161FFF7EFFA002803D0BDE872
:101A10001040FEF765BC10BD0044014014010020D9
:101A200010B58EB000240794089409940A940B947E
:101A30001C2168460C94FEF714FC26484FF08041A8
:101A400001605321C0E9011440F2E731C0E90314F9
:101A500080218161FFF7C8FA08B1FEF741FC4FF41D
:101A60008050079007A91B48FFF731FB08B1FEF72C
:101A700037FC1848FFF7F1FC08B1FEF731FC0B9476
:101A80000BA914480C94FFF771FA08B1FEF728FC73
:101A90006020CDE900040294042269460D480494B4
:101AA000FFF773FC08B1FEF71BFC082269460948E2
:101AB000FFF76BFC08B1FEF713FC0C2269460548E2
:101AC000FFF763FC08B1FEF70BFC0248FFF71EFCB2
:101AD0000EB010BD9400002010B58EB00024079405
:101AE000089409940A940B941C2168460C94FEF700
:101AF000B8FB2348214901605321C0E9011440F299
:101B0000E731C0E9031480218161FFF76DFA08B164
:101B1000FEF7E6FB4FF48050079007A91848FFF73F
:101B2000D6FA08B1FEF7DCFB1548FFF796FC08B1C2
:101B3000FEF7D6FB0B940BA911480C94FFF716FA8D
:101B400008B1FEF7CDFB6020CDE90004029400222D
:101B500069460B480494FFF718FC08B1FEF7C0FB78
:101B6000042269460648FFF710FC08B1FEF7B8FBEF
:101B70000348FFF7CBFB0EB010BD0000000400408F
:101B8000D40000200C4810B50A4901604FF4E1313F
:101B90004160002181600C22C160C0E904128161B2
:101BA000C161FFF727FD002803D0BDE81040FEF714
:101BB00097BB10BD0010014054010020FEE77047A4
:101BC0007047002102E00A38C0B2491C0A28FAD244
:101BD000090740EA1160704770B504460068C168A3
:101BE000490614D44FF0FF31C160FEF76FFC054683
:101BF0004FF47A7607E000BFFEF768FC401BB04266
:101C000001D9032070BD2068C0684006F4D50020CB
:101C100070BD70472DE9F84FFEF75EFCFA4FFB4EA2
:101C20003868401CA0F530613860B83934D030686D
:101C3000012877D1F648DFF8DC93DFF8DCA3D0F891
:101C400000C0DFF8D8B3DFF8D8E3F6490020F64A41
:101C5000F64CF74BF74D4FF4FA78BCF1010F20D05A
:101C6000BCF1050F7ED0BCF1020F7CD0BCF1030F9C
:101C70007AD0BCF1040F61D1DFF88CC3DCF80470BA
:101C80007F1CCCF80470C44697FBFCF800970CFB53
:101C90001877002F69D0FBE1E74901203060086028
:101CA000C8E7DFF864C3DCF804707F1CCCF804706C
:101CB000C44697FBFCF800970CFB187777B9DDF862
:101CC00000C04FF47A779CFBF7F807FB18CCBCF107
:101CD000000F03D0D1F800C0CCF83870009F4FF44B
:101CE0007A7C97FBFCF80CFB18770FB90F68B86388
:101CF000DDF80080C44F40F6B83CE04504DAD3F884
:101D00000080B8F1010F0ED0B846009F674517DB81
:101D10003060CA4EC8F80400C8F80000306018608F
:101D20002860D6E00AE009684FF47A728A630121DC
:101D3000C14AC9F80010786011601860BDE8F88FDA
:101D4000BF4F3F68012FF9D1BE4FD7F800C0BCF19B
:101D5000010F15D0D5F800C0BCF1010F10D0DFF88D
:101D6000E8C203E018E074E0F5E082E1DCF800C0CE
:101D7000BCF1010F04D0D4F800C0BCF1010FDDD1DB
:101D80003060C8F80400C8F800001860AE4B286046
:101D9000186020603860C7E0DFF86CC2DCF80470BF
:101DA0007F1CCCF80470C44697FBFCF800970CFB32
:101DB000187777B9DDF800C04FF47A779CFBF7F815
:101DC00007FB18CCBCF1000F03D0D2F800C0CCF850
:101DD0003870009F4FF47A7C97FBFCF80CFB187767
:101DE0000FB91768B863DDF80080874F40F6B83C3C
:101DF000E04506DADFF84C82D8F80080B8F1010F30
:101E000012D0B846009F67451ADB30608D4EC8F887
:101E10000400C8F800003060884E306018608A4BBB
:101E20002860186020605BE112684FF47A7191635A
:101E3000864A01211160804A78601160814988E0FA
:101E40007F4F3F68052F9AD11F68012F60D02F6800
:101E500058E0DFF8B4C1DCF804707F1CCCF80470E3
:101E6000C44697FBFCF800970CFB187777B9DDF8B0
:101E700000C04FF47A779CFBF7F807FB18CCBCF155
:101E8000000F03D0D1F800C0CCF83C70009F4FF495
:101E90007A7C97FBFCF80CFB18770FB90F68F86396
:101EA000DDF80080584F40F6B83CE04504DAD5F83C
:101EB0000080B8F1010F10D0B846009F674518DBCD
:101EC0003060C8F80400C8F8000028605B4D286046
:101ED00018605D4B1860206000E109684FF47A7269
:101EE000CA630121544ACAF8001078601160286062
:101EF00024E7534F3F68022FFAD11F68012F07D004
:101F0000504F3F68012F03D04F4FAEE0276818E1D4
:101F10003060C8F80400C8F8000018604A4B286018
:101F20001860484B20601860C9F80000CAF800002B
:101F3000464BCBF80000CEF8000018600B689863A1
:101F40000B68D8630968086411684863116888637E
:101F50003A490860F2E6DFF8B0C0DCF804707F1C94
:101F6000CCF80470C44697FBFCF800970CFB18777C
:101F700077B9DDF800C04FF47A779CFBF7F807FBE0
:101F800018CCBCF1000F03D0D1F800C0CCF84070E1
:101F9000DDF800C04FF47A779CFBF7F807FB18CC0C
:101FA000BCF1000F03D1D1F800C0CCF84000DDF83F
:101FB000008040F6B83CE04506DADFF88C80D8F8BF
:101FC0000080B8F1010F13D0009FDFF83C80674517
:101FD0003EDB30601C4FC8F80400184E3860C8F86B
:101FE0000000154F306001263E601860286072E7DF
:101FF00009680F64044A0121CBF8001050600E4AB2
:1020000011601149A5E700005800002014000020CD
:102010004C00002020000020240000202800002088
:102020002C00002094000020D40000200C00002090
:1020300000000020040000201C00002054000020AC
:102040004800002010000020080000203000002080
:102050003D4F3F68032F7FF44BAF1F68012F3FF4C4
:1020600057AF2F68012FFAD0384F3F68012FF6D0B5
:102070004CE7DDF800C04FF47A779CFBF7F807FBDC
:1020800018CCBCF1000F03D0D2F800C0CCF83470EB
:10209000009F4FF47A7C97FBFCF80CFB18770FB984
:1020A00017687863DDF80080294F40F6B83CE045BA
:1020B00004DAD4F80080B8F1010F26D0B846009FAA
:1020C00067452EDB3060234EC8F80400C8F80000D6
:1020D000306020601860204B286018601B4B18602F
:1020E000C9F80000CAF800001C4BCBF80000CEF87D
:1020F000000018600B6898630B68D863096808646F
:10210000116848631168886318E612684FF47A71A1
:1021100051630121CEF80010786020601048016002
:102120000CE6094F3F68042FEED11F68012F96D0AF
:102130002F68012F93D0084F3F68012F8FD0034F96
:102140003F68012F8BD0F9E54800002010000020E7
:10215000580000205400002008000020300000201B
:102160001C00002030B597B030216846FEF779F8A2
:1021700014210CA8FEF775F8142111A8FEF771F8C8
:102180001E480025016841F080510160006800F0A0
:10219000805016901A48016821F4404141F40041F2
:1021A00001600068022400F440401690092000906D
:1021B0004FF4803001900120CDE90504800507909F
:1021C00019200890A820CDE9090404200B90684646
:1021D000FEF7B0FB0CA90F2081E83100E002CDE949
:1021E0000F0502210CA8FEF7B9FA200214901194F1
:1021F00011A8FEF70BFA17B030BD000040380240BE
:10220000007000400548016841F470010160034915
:102210004FF00060803908607047000088ED00E0F2
:1022200010B50448FFF752F9BDE810400148FEF729
:10223000BABF0000140100200148FEF7B4BF00003F
:10224000940000200148FEF7AEBF0000D40000203B
:10225000F0B502681D4B1E4C9F031E4D1E4E98424A
:1022600007D0B84205D0A04203D0A84201D0B04266
:1022700004D122F0700C4A6842EA0C02984210D055
:10228000B8420ED0A0420CD0A8420AD0B04208D02A
:10229000124CA04205D0124CA04202D0114CA042D8
:1022A00003D122F44074CA6822434C6922F08002B0
:1022B000224302608A68C2620A688262984201D13F
:1022C0000969016301214161F0BD00000000014086
:1022D0000004004000080040000C004000400140A5
:1022E000004401400048014010B501F01F030121E6
:1022F000046A99408C430462016A9A401143016266
:1023000010BD10B5846842EA032224F47F440A43D6
:102310002243826010BD826822F070020A4342F0BC
:10232000070181607047000030B5026A22F00102A7
:102330000262026A4368846924F073050C682C43C6
:1023400022F002058A682A430A4DA8420BD122F0E6
:102350000805CA6823F440732A434D6922F0040239
:102360001D438B692B43436084614968416302626A
:1023700030BD00000000014030B5026A22F01002BA
:102380000262026A436884690D6824F4E64444EA00
:1023900005248D6822F0200242EA05120B4DA84266
:1023A0000ED1CD6822F0800242EA05124D6923F475
:1023B000406343EA85038D6922F0400243EA8503C6
:1023C0004360846149688163026230BD000001405E
:1023D00030B5026A22F480720262036A4268C469FC
:1023E00023F4007324F073050C682C438D6843EAD2
:1023F00005230C4DA8420ED1CD6823F4006343EAB7
:1024000005234D6922F4405242EA05128D6923F4F6
:10241000806342EA05124260C4614968C163036295
:1024200030BD00000000014030B5026A22F4805245
:102430000262046A4268C3690D6823F4E64343EA12
:1024400005238D6824F4005444EA0534064DA8425F
:1024500004D14D6922F4804242EA85124260C36190
:1024600049680164046230BD0000014010B5036A90
:10247000046A24F001040462846924F0F00444EA4C
:10248000021423F00A020A438461026210BD10B5EF
:10249000036A23F0100303628369046A23F4704320
:1024A00043EA023224F0A00343EA0111826101628F
:1024B00010BD10B5806B0021C185C184FFF70FF8F6
:1024C00010BD0168CA6822F49072CA6001684A6946
:1024D00022F001024A61202180F83A10704710B5BD
:1024E00090F83A10222901D0022010BD8168B1F580
:1024F000805F11D00169002901681FD0496801F08F
:102500007F03816A4A1C82620B70C18D491E0904D7
:10251000090CC18518D02BE00269816A002A026883
:10252000526805D0D2B20A80816A491C8162ECE708
:10253000C2F308020A80816A891CF7E74A68816A47
:102540004B1C83620A70E0E70168CA6822F020022F
:10255000CA600168CA6822F48072CA6001684A6968
:1025600022F001024A61202180F83A10FFF7B0F80A
:10257000002010BD2DE9F041044600680169E268C1
:1025800021F44051114301612169A068E2690843C7
:102590006169114308432168CA6849F20C639A4390
:1025A0000243CA6020684169A26921F44071114365
:1025B0004161E069192764253226B0F5004F354A9C
:1025C000354920684FF0000806D0884201D090427B
:1025D00036D1FEF76DF935E0884201D0904202D144
:1025E000FEF766F901E0FEF753F961684A18A0FBAF
:1025F000070148EB0803FDF7E9FD0146B0FBF5F0E4
:102600000201B1FBF5F06FF01803584301EB8000B5
:1026100006EBC000B0FBF5F000F0F80002EB400262
:10262000B1FBF5F0584301EB800006EBC000B0FBB6
:10263000F5F000F00700216810448860BDE8F081E3
:10264000FEF726F961688B0F8A00A0FB0701FDF7F2
:10265000BDFD0146B0FBF5F06FF01802504301EBF1
:10266000800006EB0010B0FBF5F000F0F002B1FBCB
:10267000F5F002EB0012B1FBF5F06FF018035843D0
:1026800001EB800006EB0010B0FBF5F000F00F004E
:10269000D1E70000001401400010014090F839100B
:1026A000212901D0022070478168B1F5805F016A5D
:1026B0000BD04A1C0262026809785160C18C491E25
:1026C0000904090CC1840ED017E009880268C1F31F
:1026D0000801516001690029016A02D0491C0162A8
:1026E000ECE7891CFBE70168CA6822F08002CA6037
:1026F0000068C16841F04001C160002070470000DF
:102700000148FEF7EDBE000054010020FEE7090776
:10271000090E002804DB00F1E02080F80014704767
:1027200000F00F0000F1E02080F8141D704702E077
:1027300008C8121F08C1002AFAD17047704700204C
:1027400001E001C1121F002AFBD170474FF00008C1
:10275000FDF7CAFEFFF706FDFFF7CCF8FFF760F9BB
:10276000FFF7BAF9FFF70EFAFFF7FEF8FFF73EF9A9
:102770007548FEF79BFC74496FF001000968086119
:1027800004217248FEF786FE704D6FF0040428683D
:10279000046108212846FEF77DFE29686FF00800D5
:1027A00008610C212846FEF775FE28686FF00C01C1
:1027B000016100216648FEF76DFE654EE01031684C
:1027C000086104213046FEF765FE3068046129681F
:1027D0004FF0000AC1F838A02968C1F83CA0296868
:1027E000C1F840A03168C1F834A03168C1F838A000
:1027F000DFF860914FF0010B5348FEF767FED9F800
:1028000014004C46012866D1FEF784FFE0690128D8
:1028100052D14D48FEF75AFE206DFDF713FDFDF72E
:1028200007FD052190FBF1F201FB1201491CA16497
:10283000012908D0022910D0032918D0042924D056
:1028400005292CD032E0606B401C6063022818DB45
:10285000C4F834B0C4F848A028E0A06B401CA063C2
:1028600002280EDBC4F838B0C4F848A01EE0E06BC4
:10287000401CE063022804DBC4F83CB0C4F848A064
:1028800014E0012812D1E16410E0206C401C2064A7
:102890000228F6DBC4F840B0C4F848A006E0606C3B
:1028A000401C60640228ECDBC4E911BAE06C80458E
:1028B00001D0C4F81CA08046206A01280BD1606AB0
:1028C000012808D1A06A012805D1E06A012802D1B7
:1028D000206B012835D0A06901288DD10024642106
:1028E00004FB01F0296888632968C86329680864C3
:1028F00031684863316888630A20FDF705FD641C70
:102900000A2CECDB00244FF47A7700BF6FF018003C
:102910002968604307EB800088632968C8632968D9
:10292000086431684863316888630A20FDF7ECFC6D
:10293000641C0A2CEADB1E2207A10C48FEF7C9FE24
:102940005AE7C4E905ABC9E7140100209400002050
:10295000D400002000000020D2D1BDF8C8EBCDEAA1
:10296000C8ABBCA4BBEED7B4CCAC0A005401002069
:10297000000000000000000001020304060708092F
:102980000000000001020304A82900080000002044
:10299000740000002E2700081C2A00087400002084
:1029A000240500003E270008000000000000000091
:1029B0000000000000000000000000000000000017
:1029C0000000000000000000000000000000000007
:1029D00000000000000000000000000000000000F7
:1029E00000000000000000000000000000000000E7
:1029F00000000000000000000000000000000000D7
:102A000000000000000000000100000010000000B5
:0C2A1000000000000024F40000000000A2
:040000050800019559
:00000001FF
